:100000000C945E000C9486000C9486000C94860080
:100010000C9486000C9486000C9486000C94AD041D
:100020000C9486000C9486000C9486000C94860038
:100030000C9486000C9486000C9486000C94860028
:100040000C9463040C9486000C9455050C942F05B5
:100050000C9486000C9486000C9486000C94860008
:100060000C9486000C948600000000080002010039
:100070000003040700000000000000000200000070
:1000800000250028002B0000000000240027002A83
:100090000004040404040404040202020202020331
:1000A000030303030301020408102040800102043B
:1000B000081020010204081020001B0711241FBE95
:1000C000CFEFD8E0DEBFCDBF22E0A0E7B1E001C0B6
:1000D0001D92AB32B207E1F711E0A0E0B1E0E2ED32
:1000E000F3E102C005900D92A037B107D9F710E0F7
:1000F000CEE5D0E004C02197FE010E94E607CD3591
:10010000D107C9F70E9487050C94E7090C940000F9
:1001100090E0FC01EB55FF4F24918F569F4FFC015F
:100120008491882399F090E0880F991FFC01E9578A
:10013000FF4FA591B491FC01E358FF4F8591949135
:100140008FB7F894EC91E22BEC938FBF08954F9208
:100150005F926F927F928F929F92AF92BF92CF9257
:10016000DF92EF92FF920F931F93CF938C014A017E
:100170005B0180910001843099F08F3F09F486C0C3
:10018000CF911F910F91FF90EF90DF90CF90BF9094
:10019000AF909F908F907F906F905F904F90089559
:1001A000ECE7F0E0C491C7FDEBCF84E00E9488004B
:1001B0002801712C612CCC23F1F0980150E040E033
:1001C000C23009F007C128013A0160E970ED83E00F
:1001D00090E00E94C70769017A0181E0C81AD1083E
:1001E000E108F10883E09FEFC916D104E104F104AE
:1001F00009F00CF444C068E478EE81E090E0A301DB
:1002000092010E94C70769017A0181E0C81AD108EA
:10021000E108F108CC2309F415C1C23009F01CC172
:1002200084E09FEFC916D104E104F10441F13CF1EF
:1002300064E274EF80E090E0A30192010E94C7079E
:1002400069017A0181E0C81AD108E108F10885E066
:100250009FEFC916D104E104F10489F080F062E156
:100260007AE780E090E0A30192010E94C70769014C
:100270007A0181E0C81AD108E108F10886E090917E
:10028000B100987F892B8093B10082C084E0809375
:100290000001ECE7F0E0C491CF3F09F471CFC13029
:1002A00019F148F0C23009F43DC0C7FD69CF84E0C0
:1002B0000E94880082CF14BC15BC84B5826084BDC6
:1002C00085B5816085BDE5E9F0E0E491F0E0EE0FF1
:1002D000FF1FE358FF4F85919491E9EAF0E0E49124
:1002E000E0937901C0E061CF10928000109281000C
:1002F000809181008860809381008091810081607D
:1003000080938100E5E9F0E0E491F0E0EE0FFF1F5B
:10031000E358FF4F85919491E9EAF0E0E491E0938E
:10032000780143CF1092B0001092B1008091B000DC
:1003300082608093B0008091B10081608093B100B1
:10034000E5E9F0E0E491F0E0EE0FFF1FE358FF4F26
:10035000859194919093770180937601E9EAF0E09A
:10036000E491E093750121CF62E17AE780E090E0CB
:10037000A30192010E94C70769017A0191E0C91A9D
:10038000D108E108F10894E085B5887F892B85BD07
:10039000D801AA0FBB1FA50194010E94540728EEA3
:1003A00033E040E050E00E94A507C13049F1C2307F
:1003B000C9F1C111E5CEC7BC2093820130938301FE
:1003C000409384015093850180916E0082608093F8
:1003D0006E00D6CE60E072E18AE790E00E94C70727
:1003E00069017A0181E0C81AD108E108F108C13039
:1003F00079F680918100887F816080938100C8CFE9
:10040000D0928900C092880020937E0130937F01B2
:10041000409380015093810180916F0082608093AE
:100420006F00AECEC092B30020937A0130937B016F
:1004300040937C0150937D01809170008260809395
:1004400070009ECE9FEFC916D104E104F10411F0B3
:1004500008F08ACF93E098CF84E0FACE90E0FC01D8
:10046000E859FF4F2491FC01EB55FF4F3491FC01FB
:10047000EF56FF4FE491EE23C9F0222339F02330E9
:1004800001F1A8F4213019F1223029F1F0E0EE0F4A
:10049000FF1FE358FF4FA591B4918FB7F894EC91EB
:1004A000611126C030953E233C938FBF08952730BD
:1004B000A9F02830C9F0243049F7809180008F7D61
:1004C00003C0809180008F7780938000DFCF84B558
:1004D0008F7784BDDBCF84B58F7DFBCF8091B0005B
:1004E0008F778093B000D2CF8091B0008F7DF9CF0D
:1004F0003E2BDACF3FB7F894809171019091720151
:10050000A0917301B091740126B5A89B05C02F3F3F
:1005100019F00196A11DB11D3FBFBA2FA92F982F29
:100520008827BC01CD01620F711D811D911D42E024
:10053000660F771F881F991F4A95D1F708958F92EC
:100540009F92AF92BF92CF92DF92EF92FF924B01B8
:100550005C010E947A026B017C010E947A026C1994
:100560007D098E099F09683E734081059105A8F3B6
:1005700021E0821A9108A108B10888EEC80E83E034
:10058000D81EE11CF11C81149104A104B10429F7C7
:10059000FF90EF90DF90CF90BF90AF909F908F90A3
:1005A0000895AF92BF92CF92DF92EF92FF920F9396
:1005B0001F93CF93DF936C017B018B01040F151FF9
:1005C000EB015E01AE18BF08C017D10759F0699161
:1005D000D601ED91FC910190F081E02DC6010995C5
:1005E000892B79F7C501DF91CF911F910F91FF9072
:1005F000EF90DF90CF90BF90AF900895FC01538DA6
:10060000448D252F30E0842F90E0821B930B5417EC
:1006100010F0CF96089501970895FC01918D828D79
:10062000981761F0A28DAE0FBF2FB11D5D968C9112
:10063000928D9F5F9F73928F90E008958FEF9FEF51
:1006400008952FB7F8948091860190918701A09129
:100650008801B09189012FBF8093920190939301FB
:10066000A0939401B09395018AE891E00E940D0354
:1006700097FF26C02FB7F89480918601909187014B
:10068000A0918801B09189012FBF409192015091B2
:1006900093016091940170919501841B950BA60BB9
:1006A000B70B40918E0150918F0160919001709134
:1006B000910184179507A607B707B0F28FEF9FEF58
:1006C0000895FC01918D828D981731F0828DE80F8D
:1006D000F11D858D90E008958FEF9FEF0895FC0147
:1006E000918D228D892F90E0805C9F4F821B910914
:1006F0008F73992708958AE891E00E946F0321E0A3
:10070000892B09F420E0822F089580E090E0892B66
:1007100029F00E947B0381110C9400000895FC01D4
:10072000A48DA80FB92FB11DA35ABF4F2C91848D52
:1007300090E001968F739927848FA689B7892C93AF
:10074000A089B1898C91837080648C93938D848D02
:10075000981306C00288F389E02D80818F7D808305
:100760000895EF92FF920F931F93CF93DF93EC01C5
:1007700081E0888F9B8D8C8D98131AC0E889F98948
:10078000808185FF15C09FB7F894EE89FF8960834B
:10079000E889F98980818370806480839FBF81E0CC
:1007A00090E0DF91CF911F910F91FF90EF9008950E
:1007B000F62E0B8D10E00F5F1F4F0F731127E02EE9
:1007C0008C8D8E110CC00FB607FCFACFE889F98921
:1007D000808185FFF5CFCE010E948F03F1CFEB8D95
:1007E000EC0FFD2FF11DE35AFF4FF0829FB7F894F5
:1007F0000B8FEA89FB8980818062CFCFCF93DF9313
:10080000EC01888D8823B9F0AA89BB89E889F98928
:100810008C9185FD03C0808186FD0DC00FB607FC5D
:10082000F7CF8C9185FFF2CF808185FFEDCFCE0190
:100830000E948F03E9CFDF91CF910895CF93DF938B
:10084000FC0101900020E9F73197AF01481B590BDB
:10085000BC018AE891E00E94D102EC0142E050E044
:1008600069E171E08AE891E00E94D1028C0F9D1F3E
:10087000DF91CF9108950F931F93CF93DF93EC01F6
:1008800088819981009759F02A813B812617370783
:1008900030F081E0DF91CF911F910F9108958B018E
:1008A0006F5F7F4F0E941109009759F099838883E9
:1008B0001B830A832C813D81232B59F7FC01108275
:1008C000E8CF80E0E7CF1F920F920FB60F9211246E
:1008D0002F933F938F939F93AF93BF938091860104
:1008E00090918701A0918801B091890130917001A8
:1008F00023E0230F2D3758F50196A11DB11D20933C
:1009000070018093860190938701A0938801B09332
:1009100089018091710190917201A0917301B09150
:1009200074010196A11DB11D809371019093720114
:10093000A0937301B0937401BF91AF919F918F9178
:100940003F912F910F900FBE0F901F90189526E8A2
:10095000230F0296A11DB11DD2CF1F920F920FB689
:100960000F9211242F933F934F935F936F937F9335
:100970008F939F93AF93BF93EF93FF9380917A01EF
:1009800090917B01A0917C01B0917D01892B8A2BF4
:100990008B2BD1F190917501E0917601F091770167
:1009A00080818927808380917A0190917B01A09139
:1009B0007C01B0917D01181619061A061B069CF4DD
:1009C00080917A0190917B01A0917C01B0917D0191
:1009D0000197A109B10980937A0190937B01A093BB
:1009E0007C01B0937D01FF91EF91BF91AF919F91F9
:1009F0008F917F916F915F914F913F912F910F90C8
:100A00000FBE0F901F90189580910001ECE7F0E069
:100A1000E4919FEF90930001E13051F030F0E2302B
:100A200069F060E00E942E02DECF10926E00F9CFD6
:100A300090916F009D7F90936F00F3CF9091700025
:100A40009D7F9093700091E09093B0009091B100E1
:100A5000987F94609093B1001092B300E2CF1F9200
:100A60000F920FB60F9211242F933F934F935F93E2
:100A70006F937F938F939F93AF93BF93EF93FF9366
:100A80008AE891E00E948F03FF91EF91BF91AF91AF
:100A90009F918F917F916F915F914F913F912F9196
:100AA0000F900FBE0F901F9018951F920F920FB6C8
:100AB0000F9211242F938F939F93EF93FF93E091C5
:100AC0009A01F0919B018081E091A001F091A10138
:100AD00082FD1BC090818091A3018F5F8F73209155
:100AE000A401821741F0E091A301F0E0E657FE4F28
:100AF000958F8093A301FF91EF919F918F912F91FB
:100B00000F900FBE0F901F9018958081F4CFCF9358
:100B1000DF93CDB7DEB728970FB6F894DEBF0FBED0
:100B2000CDBF789484B5826084BD84B5816084BD76
:100B300085B5826085BD85B5816085BD80916E007B
:100B4000816080936E0010928100809181008260AC
:100B500080938100809181008160809381008091E9
:100B600080008160809380008091B10084608093D8
:100B7000B1008091B00081608093B00080917A00D4
:100B8000846080937A0080917A00826080937A00FA
:100B900080917A00816080937A0080917A008068E9
:100BA00080937A001092C100E0919A01F0919B012C
:100BB00082E08083E0919601F09197011082E091AC
:100BC0009801F09199018FEC80831092A201E0913D
:100BD0009E01F0919F0186E08083E0919C01F0915D
:100BE0009D01808180618083E0919C01F0919D0155
:100BF000808188608083E0919C01F0919D018081DB
:100C000080688083E0919C01F0919D0180818F7DBF
:100C1000808387E00E94880086E00E94880085E04B
:100C20000E94880084E00E94880060E087E00E94C3
:100C30002E0260E086E00E942E0260E085E00E94C5
:100C40002E028CE191E00E941E0480E0A82E80E03C
:100C5000B82E8AE891E00E946F03181619060CF06E
:100C600086C01A8219821C821B821E821D8270E03D
:100C700060E0CE0101960E943B0429813A818111F6
:100C80002EC02115310519F0C9010E9488081A8269
:100C900019821E821D821C821B820E9421030D81EB
:100CA0001E8197FD24C08A30910509F18F83188633
:100CB0000F5F1F4FB801CE0101960E943B048823AD
:100CC00061F329813A818D819E81BE01695F7F4FE9
:100CD000820F931F0E94E0091E830D83DECF1E82C8
:100CE0001D826BE171E0C9010E94E009D6CFC98085
:100CF000DA80C114D10429F076010115110509F03B
:100D000043C08D819E81892B61F109811A816FE435
:100D100071E0C8010E94D709892B09F06BC084E5F6
:100D200091E00E941E0461E086E00E942E0244EFE2
:100D300051E060E070E088EE93E00E94A70061E07F
:100D400087E00E942E0268E873E180E090E00E9454
:100D50009F0260E087E00E942E0260E086E00E9431
:100D60002E0289819A81009711F00E948808A114AF
:100D7000B10409F46ECF0E947B03882309F469CF84
:100D80000E94000066CF740147018FEF881A980A0D
:100D9000F7018081082E000C990B0E944807892BCF
:100DA00091F7015011090C0D1D1DF8018081082ECD
:100DB000000C990B0E944807892B31F00E151F0576
:100DC00018F001501109F1CFA8014F5F5F4F4E1984
:100DD0005F095E834D83CE14DF0420F4B701C601A2
:100DE0000E94CE09E981FA818D819E81E80FF91F69
:100DF000108287CF6EE571E0C8010E94D709892B68
:100E000009F0AFCF83E691E00E941E0461E085E027
:100E10000E942E0248EE53E060E070E088EC90E023
:100E20000E94A70068EB7BE080E090E00E949F02B8
:100E300060E085E094CFEAE8F1E01382128288EE68
:100E400093E0A0E0B0E084839583A683B7838BE032
:100E500091E09183808385EC90E09587848784EC92
:100E600090E09787868780EC90E0918B808B81EC77
:100E700090E0938B828B82EC90E0958B848B86EC58
:100E800090E0978B868B118E128E138E148E0895A0
:100E900091110C945107803219F089508550C8F790
:100EA00008959927882708950E949607A59F900D79
:100EB000B49F900DA49F800D911D112408952F9231
:100EC0003F924F925F926F927F928F929F92AF92DA
:100ED000BF92CF92DF92EF92FF920F931F93CF9327
:100EE000DF93CDB7DEB7CA1BDB0B0FB6F894DEBFBE
:100EF0000FBECDBF09942A88398848885F846E84E4
:100F00007D848C849B84AA84B984C884DF80EE802D
:100F1000FD800C811B81AA81B981CE0FD11D0FB636
:100F2000F894DEBF0FBECDBFED010895A29FB001C2
:100F3000B39FC001A39F700D811D1124911DB29F0D
:100F4000700D811D1124911D0895A1E21A2EAA1B76
:100F5000BB1BFD010DC0AA1FBB1FEE1FFF1FA21769
:100F6000B307E407F50720F0A21BB30BE40BF50B66
:100F7000661F771F881F991F1A9469F760957095EF
:100F8000809590959B01AC01BD01CF010895052E80
:100F900097FB1EF400940E94DE0757FD07D00E94C5
:100FA000A50707FC03D04EF40C94DE07509540953E
:100FB000309521953F4F4F4F5F4F08959095809505
:100FC000709561957F4F8F4F9F4F0895EE0FFF1FD4
:100FD0000590F491E02D09940F931F93CF93DF9325
:100FE0008230910510F482E090E0E0912902F091C6
:100FF0002A0230E020E0B0E0A0E0309799F421151B
:10100000310509F44AC0281B390B24303105D8F5C5
:101010008A819B816115710589F1FB01938382832C
:10102000FE0111C040815181028113814817590787
:10103000E0F04817590799F4109761F012960C9355
:10104000129713961C933296CF01DF91CF911F9187
:101050000F9108950093290210932A02F4CF2115CD
:10106000310551F04217530738F0A901DB019A010D
:10107000BD01DF01F801C1CFEF01F9CF90932A0242
:1010800080932902CDCFFE01E20FF31F819391934C
:101090002250310939832883D7CF209127023091FC
:1010A0002802232B41F42091030130910401309355
:1010B000280220932702209101013091020121157D
:1010C000310541F42DB73EB740910501509106011D
:1010D000241B350BE0912702F0912802E217F30759
:1010E000A0F42E1B3F0B2817390778F0AC014E5F98
:1010F0005F4F2417350748F04E0F5F1F50932802AB
:1011000040932702819391939FCFF0E0E0E09CCF42
:10111000CF93DF930097E9F0FC013297138212829C
:10112000A0912902B0912A02ED0130E020E0109751
:10113000A1F420813181820F931F209127023091E9
:1011400028022817390709F061C0F0932802E093BC
:101150002702DF91CF910895EA01CE17DF07E8F566
:101160004A815B819E0141155105B1F7E901FB837D
:10117000EA8349915991C40FD51FEC17FD0761F41B
:10118000808191810296840F951FE901998388835C
:10119000828193819B838A83F0E0E0E012968D91B7
:1011A0009C9113970097B9F52D913C911197CD0122
:1011B0000296820F931F2091270230912802281750
:1011C000390739F6309751F510922A021092290208
:1011D000B0932802A0932702BCCFD383C28340815F
:1011E0005181840F951FC817D90761F44E5F5F4F77
:1011F00088819981480F591F518340838A819B813F
:10120000938382832115310509F0B0CFF0932A0230
:10121000E09329029ECFFD01DC01C0CF1382128230
:10122000D7CFB0E0A0E0E7E1F9E00C9461078C01D2
:10123000009751F4CB010E94EC078C01C801CDB797
:10124000DEB7E0E10C947D07FC01E60FF71F9C017F
:1012500022503109E217F30708F49DC0D901CD915E
:10126000DC911197C617D70798F0C530D10530F338
:10127000CE0104978617970708F3C61BD70B229752
:10128000C193D1936D937C93CF010E948808D6CFF0
:101290005B01AC1ABD0A4C018C0E9D1EA091290267
:1012A000B0912A02512C412CF12CE12C109731F5F0
:1012B00080912702909128028815990509F05CC059
:1012C0004616570608F058C080910101909102011E
:1012D000009741F48DB79EB74091050150910601EA
:1012E000841B950BE817F90708F055C0F093280206
:1012F000E0932702F90171836083A0CF8D919C91C7
:10130000119712966C90129713967C901397A815CC
:10131000B90559F56C0142E0C40ED11CCA14DB04B6
:1013200020F1AC014A195B09DA011296159780F099
:101330006282738251834083D9016D937C93E1145F
:10134000F10471F0D7011396FC93EE93129776CFC8
:1013500022968C0F9D1FF90191838083F301EFCFBB
:10136000F0932A02E093290269CF4816590608F43F
:101370002C017D01D3019ACFCB010E94EC077C01A7
:10138000009749F0AE01B8010E94CE09C8010E9441
:101390008808870153CF10E000E050CFFB01DC014B
:1013A00002C001900D9241505040D8F70895FB01C2
:1013B000DC018D91019080190110D9F3990B0895EA
:1013C000FB01DC0101900D920020E1F70895F894F3
:0213D000FFCF4D
:1013D200FF00002B02800000000000B103D102FEDA
:1013E20002FE036F030D0361030D0A00417264756F
:1013F200696E6F20707265742E20456E2061747460
:10140200656E7465206475207369676E616C206413
:1014120065206C612063616D6572612E2E2E004F16
:1014220050454E004269656E76656E7565004445AD
:101432004E59004E6F6E206175746F72697365004C
:00000001FF
